{
  "_format": "hh-sol-artifact-1",
  "contractName": "IdentityManager",
  "sourceName": "contracts/IdentityManagement.sol",
  "abi": [
    {
      "inputs": [
        {
          "internalType": "string",
          "name": "_institution",
          "type": "string"
        }
      ],
      "stateMutability": "nonpayable",
      "type": "constructor"
    },
    {
      "anonymous": false,
      "inputs": [
        {
          "indexed": false,
          "internalType": "address",
          "name": "owner",
          "type": "address"
        }
      ],
      "name": "ContractDestructed",
      "type": "event"
    },
    {
      "anonymous": false,
      "inputs": [
        {
          "indexed": false,
          "internalType": "string",
          "name": "fingerprint",
          "type": "string"
        },
        {
          "indexed": false,
          "internalType": "string",
          "name": "signature",
          "type": "string"
        },
        {
          "indexed": false,
          "internalType": "uint256",
          "name": "timestamp",
          "type": "uint256"
        }
      ],
      "name": "IdentityAdded",
      "type": "event"
    },
    {
      "anonymous": false,
      "inputs": [
        {
          "indexed": false,
          "internalType": "string",
          "name": "fingerprint",
          "type": "string"
        },
        {
          "indexed": false,
          "internalType": "bool",
          "name": "verified",
          "type": "bool"
        }
      ],
      "name": "IdentityRemoved",
      "type": "event"
    },
    {
      "inputs": [
        {
          "internalType": "string",
          "name": "_fingerprint",
          "type": "string"
        },
        {
          "internalType": "string",
          "name": "_signature",
          "type": "string"
        },
        {
          "internalType": "bool",
          "name": "_verified",
          "type": "bool"
        }
      ],
      "name": "addIdentity",
      "outputs": [],
      "stateMutability": "nonpayable",
      "type": "function"
    },
    {
      "inputs": [
        {
          "internalType": "string",
          "name": "_fingerprint",
          "type": "string"
        }
      ],
      "name": "getIdentity",
      "outputs": [
        {
          "internalType": "address",
          "name": "verifiedBy",
          "type": "address"
        },
        {
          "internalType": "string",
          "name": "signature",
          "type": "string"
        },
        {
          "internalType": "bool",
          "name": "verified",
          "type": "bool"
        },
        {
          "internalType": "string",
          "name": "fingerprint",
          "type": "string"
        },
        {
          "internalType": "uint256",
          "name": "timestamp",
          "type": "uint256"
        }
      ],
      "stateMutability": "view",
      "type": "function"
    },
    {
      "inputs": [],
      "name": "institution",
      "outputs": [
        {
          "internalType": "string",
          "name": "",
          "type": "string"
        }
      ],
      "stateMutability": "view",
      "type": "function"
    },
    {
      "inputs": [],
      "name": "isDestructed",
      "outputs": [
        {
          "internalType": "bool",
          "name": "",
          "type": "bool"
        }
      ],
      "stateMutability": "view",
      "type": "function"
    },
    {
      "inputs": [],
      "name": "owner",
      "outputs": [
        {
          "internalType": "address",
          "name": "",
          "type": "address"
        }
      ],
      "stateMutability": "view",
      "type": "function"
    },
    {
      "inputs": [],
      "name": "removeContract",
      "outputs": [],
      "stateMutability": "nonpayable",
      "type": "function"
    },
    {
      "inputs": [
        {
          "internalType": "string",
          "name": "_fingerprint",
          "type": "string"
        }
      ],
      "name": "removeIdentity",
      "outputs": [],
      "stateMutability": "nonpayable",
      "type": "function"
    }
  ],
  "bytecode": "0x60806040526003805460ff191690553480156200001b57600080fd5b5060405162000ebe38038062000ebe8339810160408190526200003e916200007c565b600080546001600160a01b0319163317905560016200005e8282620001e0565b5050620002ac565b634e487b7160e01b600052604160045260246000fd5b600060208083850312156200009057600080fd5b82516001600160401b0380821115620000a857600080fd5b818501915085601f830112620000bd57600080fd5b815181811115620000d257620000d262000066565b604051601f8201601f19908116603f01168101908382118183101715620000fd57620000fd62000066565b8160405282815288868487010111156200011657600080fd5b600093505b828410156200013a57848401860151818501870152928501926200011b565b600086848301015280965050505050505092915050565b600181811c908216806200016657607f821691505b6020821081036200018757634e487b7160e01b600052602260045260246000fd5b50919050565b601f821115620001db57600081815260208120601f850160051c81016020861015620001b65750805b601f850160051c820191505b81811015620001d757828155600101620001c2565b5050505b505050565b81516001600160401b03811115620001fc57620001fc62000066565b62000214816200020d845462000151565b846200018d565b602080601f8311600181146200024c5760008415620002335750858301515b600019600386901b1c1916600185901b178555620001d7565b600085815260208120601f198616915b828110156200027d578886015182559484019460019091019084016200025c565b50858210156200029c5787850151600019600388901b60f8161c191681555b5050505050600190811b01905550565b610c0280620002bc6000396000f3fe608060405234801561001057600080fd5b506004361061007d5760003560e01c8063a5a492271161005b578063a5a49227146100ef578063ca364a3a1461010c578063d1384eb61461011f578063fe389e091461013457600080fd5b80630a29ae6f14610082578063295f8580146100af5780638da5cb5b146100c4575b600080fd5b610095610090366004610850565b61013c565b6040516100a69594939291906108d3565b60405180910390f35b6100c26100bd366004610924565b610325565b005b6000546100d7906001600160a01b031681565b6040516001600160a01b0390911681526020016100a6565b6003546100fc9060ff1681565b60405190151581526020016100a6565b6100c261011a366004610850565b6104d7565b6101276105ef565b6040516100a691906109a1565b6100c261067d565b600060606000606060008560405160200161015791906109a1565b60408051601f1981840301815291815281516020928301206000818152600293849052919091209091015460ff166101d65760405162461bcd60e51b815260206004820152601960248201527f4964656e74697479206d7573742062652076657269666965640000000000000060448201526064015b60405180910390fd5b60035460ff16156101f95760405162461bcd60e51b81526004016101cd906109bb565b60008760405160200161020c91906109a1565b60408051601f1981840301815282825280516020808301919091206000908152600282528381206080860190945283546001600160a01b031685526001840180549396509094939291840191610261906109f2565b80601f016020809104026020016040519081016040528092919081815260200182805461028d906109f2565b80156102da5780601f106102af576101008083540402835291602001916102da565b820191906000526020600020905b8154815290600101906020018083116102bd57829003601f168201915b5050509183525050600282015460ff16151560208083019190915260039092015460409182015282519183015190830151606090930151919c909b929a509198509650945050505050565b60005433906001600160a01b031681146103515760405162461bcd60e51b81526004016101cd90610a2c565b60035460ff16156103745760405162461bcd60e51b81526004016101cd906109bb565b60008460405160200161038791906109a1565b60405160208183030381529060405290508261040b5760405162461bcd60e51b815260206004820152603760248201527f4964656e74697479206d757374206265207665726966696564206265666f726560448201527f20616464696e6720746f206120626c6f636b636861696e00000000000000000060648201526084016101cd565b6040805160808101825233815260208082018781528615158385015242606084015284518583012060009081526002909252929020815181546001600160a01b0319166001600160a01b03909116178155915190919060018201906104709082610ab2565b5060408281015160028301805460ff1916911515919091179055606090920151600390910155517f330a23e025600f2a52c537d0d5de21d302038a7b28983d82fbbc9f83bc41135a906104c890879087904290610b72565b60405180910390a15050505050565b60005433906001600160a01b031681146105035760405162461bcd60e51b81526004016101cd90610a2c565b60035460ff16156105265760405162461bcd60e51b81526004016101cd906109bb565b60008260405160200161053991906109a1565b60408051601f1981840301815291815281516020808401919091206000908152600290915290812080546001600160a01b031916815591925061057f6001830182610757565b506002818101805460ff191690556000600390920182905582516020808501919091208352819052604091829020015490517fe5fc769c7b11aa1c7e8711f94f314c3b940c50a6806ff652e476d7210fa5fb2a916105e291869160ff1690610ba8565b60405180910390a1505050565b600180546105fc906109f2565b80601f0160208091040260200160405190810160405280929190818152602001828054610628906109f2565b80156106755780601f1061064a57610100808354040283529160200191610675565b820191906000526020600020905b81548152906001019060200180831161065857829003601f168201915b505050505081565b60005433906001600160a01b031681146106a95760405162461bcd60e51b81526004016101cd90610a2c565b60035460ff16156106cc5760405162461bcd60e51b81526004016101cd906109bb565b6003805460ff19166001179055600080546040516001600160a01b03909116914780156108fc02929091818181858888f19350505050158015610713573d6000803e3d6000fd5b506000546040516001600160a01b0390911681527f7c00bf1dea7244b88e1aeb0bd75db0e20e84766df7a360401d0841fd36e0ba069060200160405180910390a150565b508054610763906109f2565b6000825580601f10610773575050565b601f0160209004906000526020600020908101906107919190610794565b50565b5b808211156107a95760008155600101610795565b5090565b634e487b7160e01b600052604160045260246000fd5b600082601f8301126107d457600080fd5b813567ffffffffffffffff808211156107ef576107ef6107ad565b604051601f8301601f19908116603f01168101908282118183101715610817576108176107ad565b8160405283815286602085880101111561083057600080fd5b836020870160208301376000602085830101528094505050505092915050565b60006020828403121561086257600080fd5b813567ffffffffffffffff81111561087957600080fd5b610885848285016107c3565b949350505050565b6000815180845260005b818110156108b357602081850181015186830182015201610897565b506000602082860101526020601f19601f83011685010191505092915050565b6001600160a01b038616815260a0602082018190526000906108f79083018761088d565b85151560408401528281036060840152610911818661088d565b9150508260808301529695505050505050565b60008060006060848603121561093957600080fd5b833567ffffffffffffffff8082111561095157600080fd5b61095d878388016107c3565b9450602086013591508082111561097357600080fd5b50610980868287016107c3565b9250506040840135801515811461099657600080fd5b809150509250925092565b6020815260006109b4602083018461088d565b9392505050565b6020808252601c908201527f436f6e747261637420686173206265656e206465737472756374656400000000604082015260600190565b600181811c90821680610a0657607f821691505b602082108103610a2657634e487b7160e01b600052602260045260246000fd5b50919050565b6020808252601d908201527f53656e646572206d75737420626520636f6e7472616374206f776e6572000000604082015260600190565b601f821115610aad57600081815260208120601f850160051c81016020861015610a8a5750805b601f850160051c820191505b81811015610aa957828155600101610a96565b5050505b505050565b815167ffffffffffffffff811115610acc57610acc6107ad565b610ae081610ada84546109f2565b84610a63565b602080601f831160018114610b155760008415610afd5750858301515b600019600386901b1c1916600185901b178555610aa9565b600085815260208120601f198616915b82811015610b4457888601518255948401946001909101908401610b25565b5085821015610b625787850151600019600388901b60f8161c191681555b5050505050600190811b01905550565b606081526000610b85606083018661088d565b8281036020840152610b97818661088d565b915050826040830152949350505050565b604081526000610bbb604083018561088d565b90508215156020830152939250505056fea26469706673582212204d28a28eb0a665a715cbe7a21a89a0e4d52e9c57d0b963c4fd7e80ffa85da56a64736f6c63430008130033",
  "linkReferences": {},
  "deployedLinkReferences": {}
}